{
	"data": {
		"bytecode": {
			"linkReferences": {},
			"object": "608060405260ff600060016101000a81548160ff021916908360ff1602179055507ffffffffffffffffffffffffffffffffffffffffffffffffffffffffffffffff660015534801561005057600080fd5b50610190806100606000396000f3fe608060405260043610610062576000357c0100000000000000000000000000000000000000000000000000000000900463ffffffff16806302c7e7af146100675780630c55699c14610096578063a56dfe4a146100c7578063c27fc305146100f2575b600080fd5b34801561007357600080fd5b5061007c610109565b604051808215151515815260200191505060405180910390f35b3480156100a257600080fd5b506100ab61011b565b604051808260ff1660ff16815260200191505060405180910390f35b3480156100d357600080fd5b506100dc61012e565b6040518082815260200191505060405180910390f35b3480156100fe57600080fd5b50610107610134565b005b6000809054906101000a900460ff1681565b600060019054906101000a900460ff1681565b60015481565b6001600060018282829054906101000a900460ff160192506101000a81548160ff021916908360ff16021790555056fea165627a7a723058200826799cda1e8de6e77a2d6fc602e005321bfef4aea379d589d9d00ad634a4bb0029",
			"opcodes": "PUSH1 0x80 PUSH1 0x40 MSTORE PUSH1 0xFF PUSH1 0x0 PUSH1 0x1 PUSH2 0x100 EXP DUP2 SLOAD DUP2 PUSH1 0xFF MUL NOT AND SWAP1 DUP4 PUSH1 0xFF AND MUL OR SWAP1 SSTORE POP PUSH32 0xFFFFFFFFFFFFFFFFFFFFFFFFFFFFFFFFFFFFFFFFFFFFFFFFFFFFFFFFFFFFFFF6 PUSH1 0x1 SSTORE CALLVALUE DUP1 ISZERO PUSH2 0x50 JUMPI PUSH1 0x0 DUP1 REVERT JUMPDEST POP PUSH2 0x190 DUP1 PUSH2 0x60 PUSH1 0x0 CODECOPY PUSH1 0x0 RETURN INVALID PUSH1 0x80 PUSH1 0x40 MSTORE PUSH1 0x4 CALLDATASIZE LT PUSH2 0x62 JUMPI PUSH1 0x0 CALLDATALOAD PUSH29 0x100000000000000000000000000000000000000000000000000000000 SWAP1 DIV PUSH4 0xFFFFFFFF AND DUP1 PUSH4 0x2C7E7AF EQ PUSH2 0x67 JUMPI DUP1 PUSH4 0xC55699C EQ PUSH2 0x96 JUMPI DUP1 PUSH4 0xA56DFE4A EQ PUSH2 0xC7 JUMPI DUP1 PUSH4 0xC27FC305 EQ PUSH2 0xF2 JUMPI JUMPDEST PUSH1 0x0 DUP1 REVERT JUMPDEST CALLVALUE DUP1 ISZERO PUSH2 0x73 JUMPI PUSH1 0x0 DUP1 REVERT JUMPDEST POP PUSH2 0x7C PUSH2 0x109 JUMP JUMPDEST PUSH1 0x40 MLOAD DUP1 DUP3 ISZERO ISZERO ISZERO ISZERO DUP2 MSTORE PUSH1 0x20 ADD SWAP2 POP POP PUSH1 0x40 MLOAD DUP1 SWAP2 SUB SWAP1 RETURN JUMPDEST CALLVALUE DUP1 ISZERO PUSH2 0xA2 JUMPI PUSH1 0x0 DUP1 REVERT JUMPDEST POP PUSH2 0xAB PUSH2 0x11B JUMP JUMPDEST PUSH1 0x40 MLOAD DUP1 DUP3 PUSH1 0xFF AND PUSH1 0xFF AND DUP2 MSTORE PUSH1 0x20 ADD SWAP2 POP POP PUSH1 0x40 MLOAD DUP1 SWAP2 SUB SWAP1 RETURN JUMPDEST CALLVALUE DUP1 ISZERO PUSH2 0xD3 JUMPI PUSH1 0x0 DUP1 REVERT JUMPDEST POP PUSH2 0xDC PUSH2 0x12E JUMP JUMPDEST PUSH1 0x40 MLOAD DUP1 DUP3 DUP2 MSTORE PUSH1 0x20 ADD SWAP2 POP POP PUSH1 0x40 MLOAD DUP1 SWAP2 SUB SWAP1 RETURN JUMPDEST CALLVALUE DUP1 ISZERO PUSH2 0xFE JUMPI PUSH1 0x0 DUP1 REVERT JUMPDEST POP PUSH2 0x107 PUSH2 0x134 JUMP JUMPDEST STOP JUMPDEST PUSH1 0x0 DUP1 SWAP1 SLOAD SWAP1 PUSH2 0x100 EXP SWAP1 DIV PUSH1 0xFF AND DUP2 JUMP JUMPDEST PUSH1 0x0 PUSH1 0x1 SWAP1 SLOAD SWAP1 PUSH2 0x100 EXP SWAP1 DIV PUSH1 0xFF AND DUP2 JUMP JUMPDEST PUSH1 0x1 SLOAD DUP2 JUMP JUMPDEST PUSH1 0x1 PUSH1 0x0 PUSH1 0x1 DUP3 DUP3 DUP3 SWAP1 SLOAD SWAP1 PUSH2 0x100 EXP SWAP1 DIV PUSH1 0xFF AND ADD SWAP3 POP PUSH2 0x100 EXP DUP2 SLOAD DUP2 PUSH1 0xFF MUL NOT AND SWAP1 DUP4 PUSH1 0xFF AND MUL OR SWAP1 SSTORE POP JUMP INVALID LOG1 PUSH6 0x627A7A723058 KECCAK256 ADDMOD 0x26 PUSH26 0x9CDA1E8DE6E77A2D6FC602E005321BFEF4AEA379D589D9D00AD6 CALLVALUE LOG4 0xbb STOP 0x29 "
		},
		"gasEstimates": {
			"creation": {
				"codeDepositCost": "80000",
				"executionCost": "40452",
				"totalCost": "120452"
			},
			"external": {
				"f1()": "20816",
				"sold()": "442",
				"x()": "514",
				"y()": "438"
			}
		},
		"methodIdentifiers": {
			"f1()": "c27fc305",
			"sold()": "02c7e7af",
			"x()": "0c55699c",
			"y()": "a56dfe4a"
		}
	},
	"abi": [
		{
			"constant": true,
			"inputs": [],
			"name": "sold",
			"outputs": [
				{
					"name": "",
					"type": "bool"
				}
			],
			"payable": false,
			"stateMutability": "view",
			"type": "function"
		},
		{
			"constant": true,
			"inputs": [],
			"name": "x",
			"outputs": [
				{
					"name": "",
					"type": "uint8"
				}
			],
			"payable": false,
			"stateMutability": "view",
			"type": "function"
		},
		{
			"constant": true,
			"inputs": [],
			"name": "y",
			"outputs": [
				{
					"name": "",
					"type": "int256"
				}
			],
			"payable": false,
			"stateMutability": "view",
			"type": "function"
		},
		{
			"constant": false,
			"inputs": [],
			"name": "f1",
			"outputs": [],
			"payable": false,
			"stateMutability": "nonpayable",
			"type": "function"
		}
	]
}