{
	"data": {
		"bytecode": {
			"linkReferences": {},
			"object": "60806040526040518060600160405280600260ff168152602001600360ff168152602001600460ff16815250600090600361003b92919061004e565b5034801561004857600080fd5b506100b0565b8260038101928215610082579160200282015b82811115610081578251829060ff16905591602001919060010190610061565b5b50905061008f9190610093565b5090565b5b808211156100ac576000816000905550600101610094565b5090565b6101d7806100bf6000396000f3fe608060405234801561001057600080fd5b50600436106100365760003560e01c806303f6bd151461003b578063431aabc214610057575b600080fd5b610055600480360381019061005091906100d0565b610087565b005b610071600480360381019061006c919061010c565b61008b565b60405161007e9190610144565b60405180910390f35b5050565b6000816003811061009b57600080fd5b016000915090505481565b6000813590506100b581610173565b92915050565b6000813590506100ca8161018a565b92915050565b600080604083850312156100e357600080fd5b60006100f1858286016100a6565b9250506020610102858286016100a6565b9150509250929050565b60006020828403121561011e57600080fd5b600061012c848285016100bb565b91505092915050565b61013e81610169565b82525050565b60006020820190506101596000830184610135565b92915050565b6000819050919050565b6000819050919050565b61017c8161015f565b811461018757600080fd5b50565b61019381610169565b811461019e57600080fd5b5056fea26469706673582212208ff1102a3050a2c42e65b69f9d98c13be4ce74a098a1a343e2c669863795def764736f6c63430008000033",
			"opcodes": "PUSH1 0x80 PUSH1 0x40 MSTORE PUSH1 0x40 MLOAD DUP1 PUSH1 0x60 ADD PUSH1 0x40 MSTORE DUP1 PUSH1 0x2 PUSH1 0xFF AND DUP2 MSTORE PUSH1 0x20 ADD PUSH1 0x3 PUSH1 0xFF AND DUP2 MSTORE PUSH1 0x20 ADD PUSH1 0x4 PUSH1 0xFF AND DUP2 MSTORE POP PUSH1 0x0 SWAP1 PUSH1 0x3 PUSH2 0x3B SWAP3 SWAP2 SWAP1 PUSH2 0x4E JUMP JUMPDEST POP CALLVALUE DUP1 ISZERO PUSH2 0x48 JUMPI PUSH1 0x0 DUP1 REVERT JUMPDEST POP PUSH2 0xB0 JUMP JUMPDEST DUP3 PUSH1 0x3 DUP2 ADD SWAP3 DUP3 ISZERO PUSH2 0x82 JUMPI SWAP2 PUSH1 0x20 MUL DUP3 ADD JUMPDEST DUP3 DUP2 GT ISZERO PUSH2 0x81 JUMPI DUP3 MLOAD DUP3 SWAP1 PUSH1 0xFF AND SWAP1 SSTORE SWAP2 PUSH1 0x20 ADD SWAP2 SWAP1 PUSH1 0x1 ADD SWAP1 PUSH2 0x61 JUMP JUMPDEST JUMPDEST POP SWAP1 POP PUSH2 0x8F SWAP2 SWAP1 PUSH2 0x93 JUMP JUMPDEST POP SWAP1 JUMP JUMPDEST JUMPDEST DUP1 DUP3 GT ISZERO PUSH2 0xAC JUMPI PUSH1 0x0 DUP2 PUSH1 0x0 SWAP1 SSTORE POP PUSH1 0x1 ADD PUSH2 0x94 JUMP JUMPDEST POP SWAP1 JUMP JUMPDEST PUSH2 0x1D7 DUP1 PUSH2 0xBF PUSH1 0x0 CODECOPY PUSH1 0x0 RETURN INVALID PUSH1 0x80 PUSH1 0x40 MSTORE CALLVALUE DUP1 ISZERO PUSH2 0x10 JUMPI PUSH1 0x0 DUP1 REVERT JUMPDEST POP PUSH1 0x4 CALLDATASIZE LT PUSH2 0x36 JUMPI PUSH1 0x0 CALLDATALOAD PUSH1 0xE0 SHR DUP1 PUSH4 0x3F6BD15 EQ PUSH2 0x3B JUMPI DUP1 PUSH4 0x431AABC2 EQ PUSH2 0x57 JUMPI JUMPDEST PUSH1 0x0 DUP1 REVERT JUMPDEST PUSH2 0x55 PUSH1 0x4 DUP1 CALLDATASIZE SUB DUP2 ADD SWAP1 PUSH2 0x50 SWAP2 SWAP1 PUSH2 0xD0 JUMP JUMPDEST PUSH2 0x87 JUMP JUMPDEST STOP JUMPDEST PUSH2 0x71 PUSH1 0x4 DUP1 CALLDATASIZE SUB DUP2 ADD SWAP1 PUSH2 0x6C SWAP2 SWAP1 PUSH2 0x10C JUMP JUMPDEST PUSH2 0x8B JUMP JUMPDEST PUSH1 0x40 MLOAD PUSH2 0x7E SWAP2 SWAP1 PUSH2 0x144 JUMP JUMPDEST PUSH1 0x40 MLOAD DUP1 SWAP2 SUB SWAP1 RETURN JUMPDEST POP POP JUMP JUMPDEST PUSH1 0x0 DUP2 PUSH1 0x3 DUP2 LT PUSH2 0x9B JUMPI PUSH1 0x0 DUP1 REVERT JUMPDEST ADD PUSH1 0x0 SWAP2 POP SWAP1 POP SLOAD DUP2 JUMP JUMPDEST PUSH1 0x0 DUP2 CALLDATALOAD SWAP1 POP PUSH2 0xB5 DUP2 PUSH2 0x173 JUMP JUMPDEST SWAP3 SWAP2 POP POP JUMP JUMPDEST PUSH1 0x0 DUP2 CALLDATALOAD SWAP1 POP PUSH2 0xCA DUP2 PUSH2 0x18A JUMP JUMPDEST SWAP3 SWAP2 POP POP JUMP JUMPDEST PUSH1 0x0 DUP1 PUSH1 0x40 DUP4 DUP6 SUB SLT ISZERO PUSH2 0xE3 JUMPI PUSH1 0x0 DUP1 REVERT JUMPDEST PUSH1 0x0 PUSH2 0xF1 DUP6 DUP3 DUP7 ADD PUSH2 0xA6 JUMP JUMPDEST SWAP3 POP POP PUSH1 0x20 PUSH2 0x102 DUP6 DUP3 DUP7 ADD PUSH2 0xA6 JUMP JUMPDEST SWAP2 POP POP SWAP3 POP SWAP3 SWAP1 POP JUMP JUMPDEST PUSH1 0x0 PUSH1 0x20 DUP3 DUP5 SUB SLT ISZERO PUSH2 0x11E JUMPI PUSH1 0x0 DUP1 REVERT JUMPDEST PUSH1 0x0 PUSH2 0x12C DUP5 DUP3 DUP6 ADD PUSH2 0xBB JUMP JUMPDEST SWAP2 POP POP SWAP3 SWAP2 POP POP JUMP JUMPDEST PUSH2 0x13E DUP2 PUSH2 0x169 JUMP JUMPDEST DUP3 MSTORE POP POP JUMP JUMPDEST PUSH1 0x0 PUSH1 0x20 DUP3 ADD SWAP1 POP PUSH2 0x159 PUSH1 0x0 DUP4 ADD DUP5 PUSH2 0x135 JUMP JUMPDEST SWAP3 SWAP2 POP POP JUMP JUMPDEST PUSH1 0x0 DUP2 SWAP1 POP SWAP2 SWAP1 POP JUMP JUMPDEST PUSH1 0x0 DUP2 SWAP1 POP SWAP2 SWAP1 POP JUMP JUMPDEST PUSH2 0x17C DUP2 PUSH2 0x15F JUMP JUMPDEST DUP2 EQ PUSH2 0x187 JUMPI PUSH1 0x0 DUP1 REVERT JUMPDEST POP JUMP JUMPDEST PUSH2 0x193 DUP2 PUSH2 0x169 JUMP JUMPDEST DUP2 EQ PUSH2 0x19E JUMPI PUSH1 0x0 DUP1 REVERT JUMPDEST POP JUMP INVALID LOG2 PUSH5 0x6970667358 0x22 SLT KECCAK256 DUP16 CALL LT 0x2A ADDRESS POP LOG2 0xC4 0x2E PUSH6 0xB69F9D98C13B 0xE4 0xCE PUSH21 0xA098A1A343E2C669863795DEF764736F6C63430008 STOP STOP CALLER "
		},
		"gasEstimates": {
			"creation": {
				"codeDepositCost": "94200",
				"executionCost": "infinite",
				"totalCost": "infinite"
			},
			"external": {
				"number(uint256)": "infinite",
				"setElement(int256,int256)": "infinite"
			}
		},
		"methodIdentifiers": {
			"number(uint256)": "431aabc2",
			"setElement(int256,int256)": "03f6bd15"
		}
	},
	"abi": [
		{
			"inputs": [
				{
					"internalType": "uint256",
					"name": "",
					"type": "uint256"
				}
			],
			"name": "number",
			"outputs": [
				{
					"internalType": "uint256",
					"name": "",
					"type": "uint256"
				}
			],
			"stateMutability": "view",
			"type": "function"
		},
		{
			"inputs": [
				{
					"internalType": "int256",
					"name": "index",
					"type": "int256"
				},
				{
					"internalType": "int256",
					"name": "value",
					"type": "int256"
				}
			],
			"name": "setElement",
			"outputs": [],
			"stateMutability": "nonpayable",
			"type": "function"
		}
	]
}