{
	"Contract/overflow_integer.sol": {
		"Property": {
			"abi": [
				{
					"inputs": [],
					"name": "f1",
					"outputs": [],
					"stateMutability": "nonpayable",
					"type": "function"
				},
				{
					"inputs": [],
					"name": "sold",
					"outputs": [
						{
							"internalType": "bool",
							"name": "",
							"type": "bool"
						}
					],
					"stateMutability": "view",
					"type": "function"
				},
				{
					"inputs": [],
					"name": "x",
					"outputs": [
						{
							"internalType": "uint8",
							"name": "",
							"type": "uint8"
						}
					],
					"stateMutability": "view",
					"type": "function"
				},
				{
					"inputs": [],
					"name": "y",
					"outputs": [
						{
							"internalType": "int256",
							"name": "",
							"type": "int256"
						}
					],
					"stateMutability": "view",
					"type": "function"
				}
			],
			"devdoc": {
				"kind": "dev",
				"methods": {},
				"version": 1
			},
			"evm": {
				"assembly": "    /* \"Contract/overflow_integer.sol\":66:264  contract Property{\r... */\n  mstore(0x40, 0x80)\n    /* \"Contract/overflow_integer.sol\":179:182  255 */\n  0xff\n    /* \"Contract/overflow_integer.sol\":162:182  uint8 public x = 255 */\n  0x00\n  exp(0x0100, 0x01)\n  dup2\n  sload\n  dup2\n  0xff\n  mul\n  not\n  and\n  swap1\n  dup4\n  0xff\n  and\n  mul\n  or\n  swap1\n  sstore\n  pop\n    /* \"Contract/overflow_integer.sol\":204:207  -10 */\n  0xfffffffffffffffffffffffffffffffffffffffffffffffffffffffffffffff6\n    /* \"Contract/overflow_integer.sol\":189:207  int public y = -10 */\n  0x01\n  sstore\n    /* \"Contract/overflow_integer.sol\":66:264  contract Property{\r... */\n  callvalue\n  dup1\n  iszero\n  tag_1\n  jumpi\n  0x00\n  dup1\n  revert\ntag_1:\n  pop\n  dataSize(sub_0)\n  dup1\n  dataOffset(sub_0)\n  0x00\n  codecopy\n  0x00\n  return\nstop\n\nsub_0: assembly {\n        /* \"Contract/overflow_integer.sol\":66:264  contract Property{\r... */\n      mstore(0x40, 0x80)\n      callvalue\n      dup1\n      iszero\n      tag_1\n      jumpi\n      0x00\n      dup1\n      revert\n    tag_1:\n      pop\n      jumpi(tag_2, lt(calldatasize, 0x04))\n      shr(0xe0, calldataload(0x00))\n      dup1\n      0x02c7e7af\n      eq\n      tag_3\n      jumpi\n      dup1\n      0x0c55699c\n      eq\n      tag_4\n      jumpi\n      dup1\n      0xa56dfe4a\n      eq\n      tag_5\n      jumpi\n      dup1\n      0xc27fc305\n      eq\n      tag_6\n      jumpi\n    tag_2:\n      0x00\n      dup1\n      revert\n        /* \"Contract/overflow_integer.sol\":113:129  bool public sold */\n    tag_3:\n      tag_7\n      tag_8\n      jump\t// in\n    tag_7:\n      mload(0x40)\n      tag_9\n      swap2\n      swap1\n      tag_10\n      jump\t// in\n    tag_9:\n      mload(0x40)\n      dup1\n      swap2\n      sub\n      swap1\n      return\n        /* \"Contract/overflow_integer.sol\":162:182  uint8 public x = 255 */\n    tag_4:\n      tag_11\n      tag_12\n      jump\t// in\n    tag_11:\n      mload(0x40)\n      tag_13\n      swap2\n      swap1\n      tag_14\n      jump\t// in\n    tag_13:\n      mload(0x40)\n      dup1\n      swap2\n      sub\n      swap1\n      return\n        /* \"Contract/overflow_integer.sol\":189:207  int public y = -10 */\n    tag_5:\n      tag_15\n      tag_16\n      jump\t// in\n    tag_15:\n      mload(0x40)\n      tag_17\n      swap2\n      swap1\n      tag_18\n      jump\t// in\n    tag_17:\n      mload(0x40)\n      dup1\n      swap2\n      sub\n      swap1\n      return\n        /* \"Contract/overflow_integer.sol\":216:261  function f1() public {\r... */\n    tag_6:\n      tag_19\n      tag_20\n      jump\t// in\n    tag_19:\n      stop\n        /* \"Contract/overflow_integer.sol\":113:129  bool public sold */\n    tag_8:\n      0x00\n      dup1\n      sload\n      swap1\n      0x0100\n      exp\n      swap1\n      div\n      0xff\n      and\n      dup2\n      jump\t// out\n        /* \"Contract/overflow_integer.sol\":162:182  uint8 public x = 255 */\n    tag_12:\n      0x00\n      0x01\n      swap1\n      sload\n      swap1\n      0x0100\n      exp\n      swap1\n      div\n      0xff\n      and\n      dup2\n      jump\t// out\n        /* \"Contract/overflow_integer.sol\":189:207  int public y = -10 */\n    tag_16:\n      sload(0x01)\n      dup2\n      jump\t// out\n        /* \"Contract/overflow_integer.sol\":216:261  function f1() public {\r... */\n    tag_20:\n        /* \"Contract/overflow_integer.sol\":252:253  1 */\n      0x01\n        /* \"Contract/overflow_integer.sol\":248:249  x */\n      0x00\n      0x01\n        /* \"Contract/overflow_integer.sol\":248:253  x +=1 */\n      dup3\n      dup3\n      dup3\n      swap1\n      sload\n      swap1\n      0x0100\n      exp\n      swap1\n      div\n      0xff\n      and\n      tag_22\n      swap2\n      swap1\n      tag_23\n      jump\t// in\n    tag_22:\n      swap3\n      pop\n      0x0100\n      exp\n      dup2\n      sload\n      dup2\n      0xff\n      mul\n      not\n      and\n      swap1\n      dup4\n      0xff\n      and\n      mul\n      or\n      swap1\n      sstore\n      pop\n        /* \"Contract/overflow_integer.sol\":216:261  function f1() public {\r... */\n      jump\t// out\n        /* \"#utility.yul\":7:116   */\n    tag_25:\n        /* \"#utility.yul\":88:109   */\n      tag_27\n        /* \"#utility.yul\":103:108   */\n      dup2\n        /* \"#utility.yul\":88:109   */\n      tag_28\n      jump\t// in\n    tag_27:\n        /* \"#utility.yul\":83:86   */\n      dup3\n        /* \"#utility.yul\":76:110   */\n      mstore\n        /* \"#utility.yul\":66:116   */\n      pop\n      pop\n      jump\t// out\n        /* \"#utility.yul\":122:237   */\n    tag_29:\n        /* \"#utility.yul\":207:230   */\n      tag_31\n        /* \"#utility.yul\":224:229   */\n      dup2\n        /* \"#utility.yul\":207:230   */\n      tag_32\n      jump\t// in\n    tag_31:\n        /* \"#utility.yul\":202:205   */\n      dup3\n        /* \"#utility.yul\":195:231   */\n      mstore\n        /* \"#utility.yul\":185:237   */\n      pop\n      pop\n      jump\t// out\n        /* \"#utility.yul\":243:355   */\n    tag_33:\n        /* \"#utility.yul\":326:348   */\n      tag_35\n        /* \"#utility.yul\":342:347   */\n      dup2\n        /* \"#utility.yul\":326:348   */\n      tag_36\n      jump\t// in\n    tag_35:\n        /* \"#utility.yul\":321:324   */\n      dup3\n        /* \"#utility.yul\":314:349   */\n      mstore\n        /* \"#utility.yul\":304:355   */\n      pop\n      pop\n      jump\t// out\n        /* \"#utility.yul\":361:571   */\n    tag_10:\n      0x00\n        /* \"#utility.yul\":486:488   */\n      0x20\n        /* \"#utility.yul\":475:484   */\n      dup3\n        /* \"#utility.yul\":471:489   */\n      add\n        /* \"#utility.yul\":463:489   */\n      swap1\n      pop\n        /* \"#utility.yul\":499:564   */\n      tag_38\n        /* \"#utility.yul\":561:562   */\n      0x00\n        /* \"#utility.yul\":550:559   */\n      dup4\n        /* \"#utility.yul\":546:563   */\n      add\n        /* \"#utility.yul\":537:543   */\n      dup5\n        /* \"#utility.yul\":499:564   */\n      tag_25\n      jump\t// in\n    tag_38:\n        /* \"#utility.yul\":453:571   */\n      swap3\n      swap2\n      pop\n      pop\n      jump\t// out\n        /* \"#utility.yul\":577:795   */\n    tag_18:\n      0x00\n        /* \"#utility.yul\":706:708   */\n      0x20\n        /* \"#utility.yul\":695:704   */\n      dup3\n        /* \"#utility.yul\":691:709   */\n      add\n        /* \"#utility.yul\":683:709   */\n      swap1\n      pop\n        /* \"#utility.yul\":719:788   */\n      tag_40\n        /* \"#utility.yul\":785:786   */\n      0x00\n        /* \"#utility.yul\":774:783   */\n      dup4\n        /* \"#utility.yul\":770:787   */\n      add\n        /* \"#utility.yul\":761:767   */\n      dup5\n        /* \"#utility.yul\":719:788   */\n      tag_29\n      jump\t// in\n    tag_40:\n        /* \"#utility.yul\":673:795   */\n      swap3\n      swap2\n      pop\n      pop\n      jump\t// out\n        /* \"#utility.yul\":801:1015   */\n    tag_14:\n      0x00\n        /* \"#utility.yul\":928:930   */\n      0x20\n        /* \"#utility.yul\":917:926   */\n      dup3\n        /* \"#utility.yul\":913:931   */\n      add\n        /* \"#utility.yul\":905:931   */\n      swap1\n      pop\n        /* \"#utility.yul\":941:1008   */\n      tag_42\n        /* \"#utility.yul\":1005:1006   */\n      0x00\n        /* \"#utility.yul\":994:1003   */\n      dup4\n        /* \"#utility.yul\":990:1007   */\n      add\n        /* \"#utility.yul\":981:987   */\n      dup5\n        /* \"#utility.yul\":941:1008   */\n      tag_33\n      jump\t// in\n    tag_42:\n        /* \"#utility.yul\":895:1015   */\n      swap3\n      swap2\n      pop\n      pop\n      jump\t// out\n        /* \"#utility.yul\":1021:1258   */\n    tag_23:\n      0x00\n        /* \"#utility.yul\":1078:1096   */\n      tag_44\n        /* \"#utility.yul\":1094:1095   */\n      dup3\n        /* \"#utility.yul\":1078:1096   */\n      tag_36\n      jump\t// in\n    tag_44:\n        /* \"#utility.yul\":1073:1096   */\n      swap2\n      pop\n        /* \"#utility.yul\":1110:1128   */\n      tag_45\n        /* \"#utility.yul\":1126:1127   */\n      dup4\n        /* \"#utility.yul\":1110:1128   */\n      tag_36\n      jump\t// in\n    tag_45:\n        /* \"#utility.yul\":1105:1128   */\n      swap3\n      pop\n        /* \"#utility.yul\":1200:1201   */\n      dup3\n        /* \"#utility.yul\":1194:1198   */\n      0xff\n        /* \"#utility.yul\":1190:1202   */\n      sub\n        /* \"#utility.yul\":1187:1188   */\n      dup3\n        /* \"#utility.yul\":1184:1203   */\n      gt\n        /* \"#utility.yul\":1181:1183   */\n      iszero\n      tag_46\n      jumpi\n        /* \"#utility.yul\":1206:1224   */\n      tag_47\n      tag_48\n      jump\t// in\n    tag_47:\n        /* \"#utility.yul\":1181:1183   */\n    tag_46:\n        /* \"#utility.yul\":1250:1251   */\n      dup3\n        /* \"#utility.yul\":1247:1248   */\n      dup3\n        /* \"#utility.yul\":1243:1252   */\n      add\n        /* \"#utility.yul\":1236:1252   */\n      swap1\n      pop\n        /* \"#utility.yul\":1063:1258   */\n      swap3\n      swap2\n      pop\n      pop\n      jump\t// out\n        /* \"#utility.yul\":1264:1354   */\n    tag_28:\n      0x00\n        /* \"#utility.yul\":1341:1346   */\n      dup2\n        /* \"#utility.yul\":1334:1347   */\n      iszero\n        /* \"#utility.yul\":1327:1348   */\n      iszero\n        /* \"#utility.yul\":1316:1348   */\n      swap1\n      pop\n        /* \"#utility.yul\":1306:1354   */\n      swap2\n      swap1\n      pop\n      jump\t// out\n        /* \"#utility.yul\":1360:1436   */\n    tag_32:\n      0x00\n        /* \"#utility.yul\":1425:1430   */\n      dup2\n        /* \"#utility.yul\":1414:1430   */\n      swap1\n      pop\n        /* \"#utility.yul\":1404:1436   */\n      swap2\n      swap1\n      pop\n      jump\t// out\n        /* \"#utility.yul\":1442:1528   */\n    tag_36:\n      0x00\n        /* \"#utility.yul\":1517:1521   */\n      0xff\n        /* \"#utility.yul\":1510:1515   */\n      dup3\n        /* \"#utility.yul\":1506:1522   */\n      and\n        /* \"#utility.yul\":1495:1522   */\n      swap1\n      pop\n        /* \"#utility.yul\":1485:1528   */\n      swap2\n      swap1\n      pop\n      jump\t// out\n        /* \"#utility.yul\":1534:1714   */\n    tag_48:\n        /* \"#utility.yul\":1582:1659   */\n      0x4e487b7100000000000000000000000000000000000000000000000000000000\n        /* \"#utility.yul\":1579:1580   */\n      0x00\n        /* \"#utility.yul\":1572:1660   */\n      mstore\n        /* \"#utility.yul\":1679:1683   */\n      0x11\n        /* \"#utility.yul\":1676:1677   */\n      0x04\n        /* \"#utility.yul\":1669:1684   */\n      mstore\n        /* \"#utility.yul\":1703:1707   */\n      0x24\n        /* \"#utility.yul\":1700:1701   */\n      0x00\n        /* \"#utility.yul\":1693:1708   */\n      revert\n\n    auxdata: 0xa2646970667358221220ed3c996134fafe451009edef2a62a54c5bdcc8e2c9d66f00f58816edccf29dba64736f6c63430008000033\n}\n",
				"bytecode": {
					"linkReferences": {},
					"object": "608060405260ff600060016101000a81548160ff021916908360ff1602179055507ffffffffffffffffffffffffffffffffffffffffffffffffffffffffffffffff660015534801561005057600080fd5b50610255806100606000396000f3fe608060405234801561001057600080fd5b506004361061004c5760003560e01c806302c7e7af146100515780630c55699c1461006f578063a56dfe4a1461008d578063c27fc305146100ab575b600080fd5b6100596100b5565b6040516100669190610145565b60405180910390f35b6100776100c6565b604051610084919061017b565b60405180910390f35b6100956100d9565b6040516100a29190610160565b60405180910390f35b6100b36100df565b005b60008054906101000a900460ff1681565b600060019054906101000a900460ff1681565b60015481565b6001600060018282829054906101000a900460ff166100fe9190610196565b92506101000a81548160ff021916908360ff160217905550565b610121816101cd565b82525050565b610130816101d9565b82525050565b61013f816101e3565b82525050565b600060208201905061015a6000830184610118565b92915050565b60006020820190506101756000830184610127565b92915050565b60006020820190506101906000830184610136565b92915050565b60006101a1826101e3565b91506101ac836101e3565b92508260ff038211156101c2576101c16101f0565b5b828201905092915050565b60008115159050919050565b6000819050919050565b600060ff82169050919050565b7f4e487b7100000000000000000000000000000000000000000000000000000000600052601160045260246000fdfea2646970667358221220ed3c996134fafe451009edef2a62a54c5bdcc8e2c9d66f00f58816edccf29dba64736f6c63430008000033",
					"opcodes": "PUSH1 0x80 PUSH1 0x40 MSTORE PUSH1 0xFF PUSH1 0x0 PUSH1 0x1 PUSH2 0x100 EXP DUP2 SLOAD DUP2 PUSH1 0xFF MUL NOT AND SWAP1 DUP4 PUSH1 0xFF AND MUL OR SWAP1 SSTORE POP PUSH32 0xFFFFFFFFFFFFFFFFFFFFFFFFFFFFFFFFFFFFFFFFFFFFFFFFFFFFFFFFFFFFFFF6 PUSH1 0x1 SSTORE CALLVALUE DUP1 ISZERO PUSH2 0x50 JUMPI PUSH1 0x0 DUP1 REVERT JUMPDEST POP PUSH2 0x255 DUP1 PUSH2 0x60 PUSH1 0x0 CODECOPY PUSH1 0x0 RETURN INVALID PUSH1 0x80 PUSH1 0x40 MSTORE CALLVALUE DUP1 ISZERO PUSH2 0x10 JUMPI PUSH1 0x0 DUP1 REVERT JUMPDEST POP PUSH1 0x4 CALLDATASIZE LT PUSH2 0x4C JUMPI PUSH1 0x0 CALLDATALOAD PUSH1 0xE0 SHR DUP1 PUSH4 0x2C7E7AF EQ PUSH2 0x51 JUMPI DUP1 PUSH4 0xC55699C EQ PUSH2 0x6F JUMPI DUP1 PUSH4 0xA56DFE4A EQ PUSH2 0x8D JUMPI DUP1 PUSH4 0xC27FC305 EQ PUSH2 0xAB JUMPI JUMPDEST PUSH1 0x0 DUP1 REVERT JUMPDEST PUSH2 0x59 PUSH2 0xB5 JUMP JUMPDEST PUSH1 0x40 MLOAD PUSH2 0x66 SWAP2 SWAP1 PUSH2 0x145 JUMP JUMPDEST PUSH1 0x40 MLOAD DUP1 SWAP2 SUB SWAP1 RETURN JUMPDEST PUSH2 0x77 PUSH2 0xC6 JUMP JUMPDEST PUSH1 0x40 MLOAD PUSH2 0x84 SWAP2 SWAP1 PUSH2 0x17B JUMP JUMPDEST PUSH1 0x40 MLOAD DUP1 SWAP2 SUB SWAP1 RETURN JUMPDEST PUSH2 0x95 PUSH2 0xD9 JUMP JUMPDEST PUSH1 0x40 MLOAD PUSH2 0xA2 SWAP2 SWAP1 PUSH2 0x160 JUMP JUMPDEST PUSH1 0x40 MLOAD DUP1 SWAP2 SUB SWAP1 RETURN JUMPDEST PUSH2 0xB3 PUSH2 0xDF JUMP JUMPDEST STOP JUMPDEST PUSH1 0x0 DUP1 SLOAD SWAP1 PUSH2 0x100 EXP SWAP1 DIV PUSH1 0xFF AND DUP2 JUMP JUMPDEST PUSH1 0x0 PUSH1 0x1 SWAP1 SLOAD SWAP1 PUSH2 0x100 EXP SWAP1 DIV PUSH1 0xFF AND DUP2 JUMP JUMPDEST PUSH1 0x1 SLOAD DUP2 JUMP JUMPDEST PUSH1 0x1 PUSH1 0x0 PUSH1 0x1 DUP3 DUP3 DUP3 SWAP1 SLOAD SWAP1 PUSH2 0x100 EXP SWAP1 DIV PUSH1 0xFF AND PUSH2 0xFE SWAP2 SWAP1 PUSH2 0x196 JUMP JUMPDEST SWAP3 POP PUSH2 0x100 EXP DUP2 SLOAD DUP2 PUSH1 0xFF MUL NOT AND SWAP1 DUP4 PUSH1 0xFF AND MUL OR SWAP1 SSTORE POP JUMP JUMPDEST PUSH2 0x121 DUP2 PUSH2 0x1CD JUMP JUMPDEST DUP3 MSTORE POP POP JUMP JUMPDEST PUSH2 0x130 DUP2 PUSH2 0x1D9 JUMP JUMPDEST DUP3 MSTORE POP POP JUMP JUMPDEST PUSH2 0x13F DUP2 PUSH2 0x1E3 JUMP JUMPDEST DUP3 MSTORE POP POP JUMP JUMPDEST PUSH1 0x0 PUSH1 0x20 DUP3 ADD SWAP1 POP PUSH2 0x15A PUSH1 0x0 DUP4 ADD DUP5 PUSH2 0x118 JUMP JUMPDEST SWAP3 SWAP2 POP POP JUMP JUMPDEST PUSH1 0x0 PUSH1 0x20 DUP3 ADD SWAP1 POP PUSH2 0x175 PUSH1 0x0 DUP4 ADD DUP5 PUSH2 0x127 JUMP JUMPDEST SWAP3 SWAP2 POP POP JUMP JUMPDEST PUSH1 0x0 PUSH1 0x20 DUP3 ADD SWAP1 POP PUSH2 0x190 PUSH1 0x0 DUP4 ADD DUP5 PUSH2 0x136 JUMP JUMPDEST SWAP3 SWAP2 POP POP JUMP JUMPDEST PUSH1 0x0 PUSH2 0x1A1 DUP3 PUSH2 0x1E3 JUMP JUMPDEST SWAP2 POP PUSH2 0x1AC DUP4 PUSH2 0x1E3 JUMP JUMPDEST SWAP3 POP DUP3 PUSH1 0xFF SUB DUP3 GT ISZERO PUSH2 0x1C2 JUMPI PUSH2 0x1C1 PUSH2 0x1F0 JUMP JUMPDEST JUMPDEST DUP3 DUP3 ADD SWAP1 POP SWAP3 SWAP2 POP POP JUMP JUMPDEST PUSH1 0x0 DUP2 ISZERO ISZERO SWAP1 POP SWAP2 SWAP1 POP JUMP JUMPDEST PUSH1 0x0 DUP2 SWAP1 POP SWAP2 SWAP1 POP JUMP JUMPDEST PUSH1 0x0 PUSH1 0xFF DUP3 AND SWAP1 POP SWAP2 SWAP1 POP JUMP JUMPDEST PUSH32 0x4E487B7100000000000000000000000000000000000000000000000000000000 PUSH1 0x0 MSTORE PUSH1 0x11 PUSH1 0x4 MSTORE PUSH1 0x24 PUSH1 0x0 REVERT INVALID LOG2 PUSH5 0x6970667358 0x22 SLT KECCAK256 0xED EXTCODECOPY SWAP10 PUSH2 0x34FA INVALID GASLIMIT LT MULMOD 0xED 0xEF 0x2A PUSH3 0xA54C5B 0xDC 0xC8 0xE2 0xC9 0xD6 PUSH16 0xF58816EDCCF29DBA64736F6C634300 ADDMOD STOP STOP CALLER "
				},
				"gasEstimates": {
					"creation": {
						"codeDepositCost": "119400",
						"executionCost": "41088",
						"totalCost": "160488"
					},
					"external": {
						"f1()": "infinite",
						"sold()": "1146",
						"x()": "1221",
						"y()": "1151"
					}
				},
				"methodIdentifiers": {
					"f1()": "c27fc305",
					"sold()": "02c7e7af",
					"x()": "0c55699c",
					"y()": "a56dfe4a"
				}
			},
			"storageLayout": {
				"storage": [
					{
						"astId": 3,
						"contract": "Contract/overflow_integer.sol:Property",
						"label": "sold",
						"offset": 0,
						"slot": "0",
						"type": "t_bool"
					},
					{
						"astId": 6,
						"contract": "Contract/overflow_integer.sol:Property",
						"label": "x",
						"offset": 1,
						"slot": "0",
						"type": "t_uint8"
					},
					{
						"astId": 10,
						"contract": "Contract/overflow_integer.sol:Property",
						"label": "y",
						"offset": 0,
						"slot": "1",
						"type": "t_int256"
					}
				],
				"types": {
					"t_bool": {
						"encoding": "inplace",
						"label": "bool",
						"numberOfBytes": "1"
					},
					"t_int256": {
						"encoding": "inplace",
						"label": "int256",
						"numberOfBytes": "32"
					},
					"t_uint8": {
						"encoding": "inplace",
						"label": "uint8",
						"numberOfBytes": "1"
					}
				}
			},
			"userdoc": {
				"kind": "user",
				"methods": {},
				"version": 1
			}
		}
	}
}