{
	"Contract/Fixed_sized_arrary.sol": {
		"FixedSizeArray": {
			"abi": [
				{
					"inputs": [],
					"name": "b1",
					"outputs": [
						{
							"internalType": "bytes1",
							"name": "",
							"type": "bytes1"
						}
					],
					"stateMutability": "view",
					"type": "function"
				},
				{
					"inputs": [],
					"name": "b2",
					"outputs": [
						{
							"internalType": "bytes2",
							"name": "",
							"type": "bytes2"
						}
					],
					"stateMutability": "view",
					"type": "function"
				},
				{
					"inputs": [],
					"name": "b3",
					"outputs": [
						{
							"internalType": "bytes3",
							"name": "",
							"type": "bytes3"
						}
					],
					"stateMutability": "view",
					"type": "function"
				},
				{
					"inputs": [],
					"name": "getLength",
					"outputs": [
						{
							"internalType": "uint256",
							"name": "",
							"type": "uint256"
						}
					],
					"stateMutability": "view",
					"type": "function"
				},
				{
					"inputs": [
						{
							"internalType": "uint256",
							"name": "",
							"type": "uint256"
						}
					],
					"name": "number",
					"outputs": [
						{
							"internalType": "uint256",
							"name": "",
							"type": "uint256"
						}
					],
					"stateMutability": "view",
					"type": "function"
				},
				{
					"inputs": [],
					"name": "setBytesArray",
					"outputs": [],
					"stateMutability": "nonpayable",
					"type": "function"
				},
				{
					"inputs": [
						{
							"internalType": "uint256",
							"name": "index",
							"type": "uint256"
						},
						{
							"internalType": "uint256",
							"name": "value",
							"type": "uint256"
						}
					],
					"name": "setElement",
					"outputs": [],
					"stateMutability": "nonpayable",
					"type": "function"
				}
			],
			"devdoc": {
				"kind": "dev",
				"methods": {},
				"version": 1
			},
			"evm": {
				"assembly": "    /* \"Contract/Fixed_sized_arrary.sol\":73:514  contract FixedSizeArray{\r... */\n  mstore(0x40, 0x80)\n    /* \"Contract/Fixed_sized_arrary.sol\":103:134  uint[3] public number = [2,3,4] */\n  mload(0x40)\n  dup1\n  0x60\n  add\n  0x40\n  mstore\n  dup1\n    /* \"Contract/Fixed_sized_arrary.sol\":128:129  2 */\n  0x02\n    /* \"Contract/Fixed_sized_arrary.sol\":103:134  uint[3] public number = [2,3,4] */\n  0xff\n  and\n  dup2\n  mstore\n  0x20\n  add\n    /* \"Contract/Fixed_sized_arrary.sol\":130:131  3 */\n  0x03\n    /* \"Contract/Fixed_sized_arrary.sol\":103:134  uint[3] public number = [2,3,4] */\n  0xff\n  and\n  dup2\n  mstore\n  0x20\n  add\n    /* \"Contract/Fixed_sized_arrary.sol\":132:133  4 */\n  0x04\n    /* \"Contract/Fixed_sized_arrary.sol\":103:134  uint[3] public number = [2,3,4] */\n  0xff\n  and\n  dup2\n  mstore\n  pop\n  0x00\n  swap1\n  0x03\n  tag_1\n  swap3\n  swap2\n  swap1\n  tag_2\n  jump\t// in\ntag_1:\n  pop\n    /* \"Contract/Fixed_sized_arrary.sol\":73:514  contract FixedSizeArray{\r... */\n  callvalue\n  dup1\n  iszero\n  tag_3\n  jumpi\n  0x00\n  dup1\n  revert\ntag_3:\n  pop\n  jump(tag_4)\ntag_2:\n  dup3\n  0x03\n  dup2\n  add\n  swap3\n  dup3\n  iszero\n  tag_5\n  jumpi\n  swap2\n  0x20\n  mul\n  dup3\n  add\ntag_6:\n  dup3\n  dup2\n  gt\n  iszero\n  tag_7\n  jumpi\n  dup3\n  mload\n  dup3\n  swap1\n  0xff\n  and\n  swap1\n  sstore\n  swap2\n  0x20\n  add\n  swap2\n  swap1\n  0x01\n  add\n  swap1\n  jump(tag_6)\ntag_7:\ntag_5:\n  pop\n  swap1\n  pop\n  tag_8\n  swap2\n  swap1\n  tag_9\n  jump\t// in\ntag_8:\n  pop\n  swap1\n  jump\t// out\ntag_9:\ntag_10:\n  dup1\n  dup3\n  gt\n  iszero\n  tag_11\n  jumpi\n  0x00\n  dup2\n  0x00\n  swap1\n  sstore\n  pop\n  0x01\n  add\n  jump(tag_10)\ntag_11:\n  pop\n  swap1\n  jump\t// out\ntag_4:\n  dataSize(sub_0)\n  dup1\n  dataOffset(sub_0)\n  0x00\n  codecopy\n  0x00\n  return\nstop\n\nsub_0: assembly {\n        /* \"Contract/Fixed_sized_arrary.sol\":73:514  contract FixedSizeArray{\r... */\n      mstore(0x40, 0x80)\n      callvalue\n      dup1\n      iszero\n      tag_1\n      jumpi\n      0x00\n      dup1\n      revert\n    tag_1:\n      pop\n      jumpi(tag_2, lt(calldatasize, 0x04))\n      shr(0xe0, calldataload(0x00))\n      dup1\n      0xa16e7215\n      gt\n      tag_10\n      jumpi\n      dup1\n      0xa16e7215\n      eq\n      tag_6\n      jumpi\n      dup1\n      0xbe1c766b\n      eq\n      tag_7\n      jumpi\n      dup1\n      0xe9b61909\n      eq\n      tag_8\n      jumpi\n      dup1\n      0xee495002\n      eq\n      tag_9\n      jumpi\n      jump(tag_2)\n    tag_10:\n      dup1\n      0x09b8e39f\n      eq\n      tag_3\n      jumpi\n      dup1\n      0x0add6ef2\n      eq\n      tag_4\n      jumpi\n      dup1\n      0x431aabc2\n      eq\n      tag_5\n      jumpi\n    tag_2:\n      0x00\n      dup1\n      revert\n        /* \"Contract/Fixed_sized_arrary.sol\":415:511  function setBytesArray()public{\r... */\n    tag_3:\n      tag_11\n      tag_12\n      jump\t// in\n    tag_11:\n      stop\n        /* \"Contract/Fixed_sized_arrary.sol\":170:186  bytes2 public b2 */\n    tag_4:\n      tag_13\n      tag_14\n      jump\t// in\n    tag_13:\n      mload(0x40)\n      tag_15\n      swap2\n      swap1\n      tag_16\n      jump\t// in\n    tag_15:\n      mload(0x40)\n      dup1\n      swap2\n      sub\n      swap1\n      return\n        /* \"Contract/Fixed_sized_arrary.sol\":103:134  uint[3] public number = [2,3,4] */\n    tag_5:\n      tag_17\n      0x04\n      dup1\n      calldatasize\n      sub\n      dup2\n      add\n      swap1\n      tag_18\n      swap2\n      swap1\n      tag_19\n      jump\t// in\n    tag_18:\n      tag_20\n      jump\t// in\n    tag_17:\n      mload(0x40)\n      tag_21\n      swap2\n      swap1\n      tag_22\n      jump\t// in\n    tag_21:\n      mload(0x40)\n      dup1\n      swap2\n      sub\n      swap1\n      return\n        /* \"Contract/Fixed_sized_arrary.sol\":218:308  function setElement(uint index,uint value)public {\r... */\n    tag_6:\n      tag_23\n      0x04\n      dup1\n      calldatasize\n      sub\n      dup2\n      add\n      swap1\n      tag_24\n      swap2\n      swap1\n      tag_25\n      jump\t// in\n    tag_24:\n      tag_26\n      jump\t// in\n    tag_23:\n      stop\n        /* \"Contract/Fixed_sized_arrary.sol\":322:407  function getLength() public view returns(uint){\r... */\n    tag_7:\n      tag_27\n      tag_28\n      jump\t// in\n    tag_27:\n      mload(0x40)\n      tag_29\n      swap2\n      swap1\n      tag_22\n      jump\t// in\n    tag_29:\n      mload(0x40)\n      dup1\n      swap2\n      sub\n      swap1\n      return\n        /* \"Contract/Fixed_sized_arrary.sol\":193:209  bytes3 public b3 */\n    tag_8:\n      tag_30\n      tag_31\n      jump\t// in\n    tag_30:\n      mload(0x40)\n      tag_32\n      swap2\n      swap1\n      tag_33\n      jump\t// in\n    tag_32:\n      mload(0x40)\n      dup1\n      swap2\n      sub\n      swap1\n      return\n        /* \"Contract/Fixed_sized_arrary.sol\":147:163  bytes1 public b1 */\n    tag_9:\n      tag_34\n      tag_35\n      jump\t// in\n    tag_34:\n      mload(0x40)\n      tag_36\n      swap2\n      swap1\n      tag_37\n      jump\t// in\n    tag_36:\n      mload(0x40)\n      dup1\n      swap2\n      sub\n      swap1\n      return\n        /* \"Contract/Fixed_sized_arrary.sol\":415:511  function setBytesArray()public{\r... */\n    tag_12:\n        /* \"Contract/Fixed_sized_arrary.sol\":456:464  b1 = \"a\" */\n      0x6100000000000000000000000000000000000000000000000000000000000000\n        /* \"Contract/Fixed_sized_arrary.sol\":456:458  b1 */\n      0x03\n      0x00\n        /* \"Contract/Fixed_sized_arrary.sol\":456:464  b1 = \"a\" */\n      0x0100\n      exp\n      dup2\n      sload\n      dup2\n      0xff\n      mul\n      not\n      and\n      swap1\n      dup4\n      0xf8\n      shr\n      mul\n      or\n      swap1\n      sstore\n      pop\n        /* \"Contract/Fixed_sized_arrary.sol\":475:484  b2 = \"ab\" */\n      0x6162000000000000000000000000000000000000000000000000000000000000\n        /* \"Contract/Fixed_sized_arrary.sol\":475:477  b2 */\n      0x03\n      0x01\n        /* \"Contract/Fixed_sized_arrary.sol\":475:484  b2 = \"ab\" */\n      0x0100\n      exp\n      dup2\n      sload\n      dup2\n      0xffff\n      mul\n      not\n      and\n      swap1\n      dup4\n      0xf0\n      shr\n      mul\n      or\n      swap1\n      sstore\n      pop\n        /* \"Contract/Fixed_sized_arrary.sol\":495:503  b3 = \"z\" */\n      0x7a00000000000000000000000000000000000000000000000000000000000000\n        /* \"Contract/Fixed_sized_arrary.sol\":495:497  b3 */\n      0x03\n      dup1\n        /* \"Contract/Fixed_sized_arrary.sol\":495:503  b3 = \"z\" */\n      0x0100\n      exp\n      dup2\n      sload\n      dup2\n      0xffffff\n      mul\n      not\n      and\n      swap1\n      dup4\n      0xe8\n      shr\n      mul\n      or\n      swap1\n      sstore\n      pop\n        /* \"Contract/Fixed_sized_arrary.sol\":415:511  function setBytesArray()public{\r... */\n      jump\t// out\n        /* \"Contract/Fixed_sized_arrary.sol\":170:186  bytes2 public b2 */\n    tag_14:\n      0x03\n      0x01\n      swap1\n      sload\n      swap1\n      0x0100\n      exp\n      swap1\n      div\n      0xf0\n      shl\n      dup2\n      jump\t// out\n        /* \"Contract/Fixed_sized_arrary.sol\":103:134  uint[3] public number = [2,3,4] */\n    tag_20:\n      0x00\n      dup2\n      0x03\n      dup2\n      lt\n      tag_39\n      jumpi\n      0x00\n      dup1\n      revert\n    tag_39:\n      add\n      0x00\n      swap2\n      pop\n      swap1\n      pop\n      sload\n      dup2\n      jump\t// out\n        /* \"Contract/Fixed_sized_arrary.sol\":218:308  function setElement(uint index,uint value)public {\r... */\n    tag_26:\n        /* \"Contract/Fixed_sized_arrary.sol\":295:300  value */\n      dup1\n        /* \"Contract/Fixed_sized_arrary.sol\":278:284  number */\n      0x00\n        /* \"Contract/Fixed_sized_arrary.sol\":286:291  index */\n      dup4\n        /* \"Contract/Fixed_sized_arrary.sol\":278:292  number [index] */\n      0x03\n      dup2\n      lt\n      tag_42\n      jumpi\n      mstore(0x00, 0x4e487b7100000000000000000000000000000000000000000000000000000000)\n      mstore(0x04, 0x32)\n      revert(0x00, 0x24)\n    tag_42:\n      add\n        /* \"Contract/Fixed_sized_arrary.sol\":278:300  number [index] = value */\n      dup2\n      swap1\n      sstore\n      pop\n        /* \"Contract/Fixed_sized_arrary.sol\":218:308  function setElement(uint index,uint value)public {\r... */\n      pop\n      pop\n      jump\t// out\n        /* \"Contract/Fixed_sized_arrary.sol\":322:407  function getLength() public view returns(uint){\r... */\n    tag_28:\n        /* \"Contract/Fixed_sized_arrary.sol\":363:367  uint */\n      0x00\n        /* \"Contract/Fixed_sized_arrary.sol\":386:399  number.length */\n      0x03\n        /* \"Contract/Fixed_sized_arrary.sol\":379:399  return number.length */\n      swap1\n      pop\n        /* \"Contract/Fixed_sized_arrary.sol\":322:407  function getLength() public view returns(uint){\r... */\n      swap1\n      jump\t// out\n        /* \"Contract/Fixed_sized_arrary.sol\":193:209  bytes3 public b3 */\n    tag_31:\n      0x03\n      dup1\n      sload\n      swap1\n      0x0100\n      exp\n      swap1\n      div\n      0xe8\n      shl\n      dup2\n      jump\t// out\n        /* \"Contract/Fixed_sized_arrary.sol\":147:163  bytes1 public b1 */\n    tag_35:\n      0x03\n      0x00\n      swap1\n      sload\n      swap1\n      0x0100\n      exp\n      swap1\n      div\n      0xf8\n      shl\n      dup2\n      jump\t// out\n        /* \"#utility.yul\":7:146   */\n    tag_46:\n      0x00\n        /* \"#utility.yul\":91:97   */\n      dup2\n        /* \"#utility.yul\":78:98   */\n      calldataload\n        /* \"#utility.yul\":69:98   */\n      swap1\n      pop\n        /* \"#utility.yul\":107:140   */\n      tag_48\n        /* \"#utility.yul\":134:139   */\n      dup2\n        /* \"#utility.yul\":107:140   */\n      tag_49\n      jump\t// in\n    tag_48:\n        /* \"#utility.yul\":59:146   */\n      swap3\n      swap2\n      pop\n      pop\n      jump\t// out\n        /* \"#utility.yul\":152:414   */\n    tag_19:\n      0x00\n        /* \"#utility.yul\":260:262   */\n      0x20\n        /* \"#utility.yul\":248:257   */\n      dup3\n        /* \"#utility.yul\":239:246   */\n      dup5\n        /* \"#utility.yul\":235:258   */\n      sub\n        /* \"#utility.yul\":231:263   */\n      slt\n        /* \"#utility.yul\":228:230   */\n      iszero\n      tag_51\n      jumpi\n        /* \"#utility.yul\":276:277   */\n      0x00\n        /* \"#utility.yul\":273:274   */\n      dup1\n        /* \"#utility.yul\":266:278   */\n      revert\n        /* \"#utility.yul\":228:230   */\n    tag_51:\n        /* \"#utility.yul\":319:320   */\n      0x00\n        /* \"#utility.yul\":344:397   */\n      tag_52\n        /* \"#utility.yul\":389:396   */\n      dup5\n        /* \"#utility.yul\":380:386   */\n      dup3\n        /* \"#utility.yul\":369:378   */\n      dup6\n        /* \"#utility.yul\":365:387   */\n      add\n        /* \"#utility.yul\":344:397   */\n      tag_46\n      jump\t// in\n    tag_52:\n        /* \"#utility.yul\":334:397   */\n      swap2\n      pop\n        /* \"#utility.yul\":290:407   */\n      pop\n        /* \"#utility.yul\":218:414   */\n      swap3\n      swap2\n      pop\n      pop\n      jump\t// out\n        /* \"#utility.yul\":420:827   */\n    tag_25:\n      0x00\n      dup1\n        /* \"#utility.yul\":545:547   */\n      0x40\n        /* \"#utility.yul\":533:542   */\n      dup4\n        /* \"#utility.yul\":524:531   */\n      dup6\n        /* \"#utility.yul\":520:543   */\n      sub\n        /* \"#utility.yul\":516:548   */\n      slt\n        /* \"#utility.yul\":513:515   */\n      iszero\n      tag_54\n      jumpi\n        /* \"#utility.yul\":561:562   */\n      0x00\n        /* \"#utility.yul\":558:559   */\n      dup1\n        /* \"#utility.yul\":551:563   */\n      revert\n        /* \"#utility.yul\":513:515   */\n    tag_54:\n        /* \"#utility.yul\":604:605   */\n      0x00\n        /* \"#utility.yul\":629:682   */\n      tag_55\n        /* \"#utility.yul\":674:681   */\n      dup6\n        /* \"#utility.yul\":665:671   */\n      dup3\n        /* \"#utility.yul\":654:663   */\n      dup7\n        /* \"#utility.yul\":650:672   */\n      add\n        /* \"#utility.yul\":629:682   */\n      tag_46\n      jump\t// in\n    tag_55:\n        /* \"#utility.yul\":619:682   */\n      swap3\n      pop\n        /* \"#utility.yul\":575:692   */\n      pop\n        /* \"#utility.yul\":731:733   */\n      0x20\n        /* \"#utility.yul\":757:810   */\n      tag_56\n        /* \"#utility.yul\":802:809   */\n      dup6\n        /* \"#utility.yul\":793:799   */\n      dup3\n        /* \"#utility.yul\":782:791   */\n      dup7\n        /* \"#utility.yul\":778:800   */\n      add\n        /* \"#utility.yul\":757:810   */\n      tag_46\n      jump\t// in\n    tag_56:\n        /* \"#utility.yul\":747:810   */\n      swap2\n      pop\n        /* \"#utility.yul\":702:820   */\n      pop\n        /* \"#utility.yul\":503:827   */\n      swap3\n      pop\n      swap3\n      swap1\n      pop\n      jump\t// out\n        /* \"#utility.yul\":833:948   */\n    tag_57:\n        /* \"#utility.yul\":918:941   */\n      tag_59\n        /* \"#utility.yul\":935:940   */\n      dup2\n        /* \"#utility.yul\":918:941   */\n      tag_60\n      jump\t// in\n    tag_59:\n        /* \"#utility.yul\":913:916   */\n      dup3\n        /* \"#utility.yul\":906:942   */\n      mstore\n        /* \"#utility.yul\":896:948   */\n      pop\n      pop\n      jump\t// out\n        /* \"#utility.yul\":954:1069   */\n    tag_61:\n        /* \"#utility.yul\":1039:1062   */\n      tag_63\n        /* \"#utility.yul\":1056:1061   */\n      dup2\n        /* \"#utility.yul\":1039:1062   */\n      tag_64\n      jump\t// in\n    tag_63:\n        /* \"#utility.yul\":1034:1037   */\n      dup3\n        /* \"#utility.yul\":1027:1063   */\n      mstore\n        /* \"#utility.yul\":1017:1069   */\n      pop\n      pop\n      jump\t// out\n        /* \"#utility.yul\":1075:1190   */\n    tag_65:\n        /* \"#utility.yul\":1160:1183   */\n      tag_67\n        /* \"#utility.yul\":1177:1182   */\n      dup2\n        /* \"#utility.yul\":1160:1183   */\n      tag_68\n      jump\t// in\n    tag_67:\n        /* \"#utility.yul\":1155:1158   */\n      dup3\n        /* \"#utility.yul\":1148:1184   */\n      mstore\n        /* \"#utility.yul\":1138:1190   */\n      pop\n      pop\n      jump\t// out\n        /* \"#utility.yul\":1196:1314   */\n    tag_69:\n        /* \"#utility.yul\":1283:1307   */\n      tag_71\n        /* \"#utility.yul\":1301:1306   */\n      dup2\n        /* \"#utility.yul\":1283:1307   */\n      tag_72\n      jump\t// in\n    tag_71:\n        /* \"#utility.yul\":1278:1281   */\n      dup3\n        /* \"#utility.yul\":1271:1308   */\n      mstore\n        /* \"#utility.yul\":1261:1314   */\n      pop\n      pop\n      jump\t// out\n        /* \"#utility.yul\":1320:1538   */\n    tag_37:\n      0x00\n        /* \"#utility.yul\":1449:1451   */\n      0x20\n        /* \"#utility.yul\":1438:1447   */\n      dup3\n        /* \"#utility.yul\":1434:1452   */\n      add\n        /* \"#utility.yul\":1426:1452   */\n      swap1\n      pop\n        /* \"#utility.yul\":1462:1531   */\n      tag_74\n        /* \"#utility.yul\":1528:1529   */\n      0x00\n        /* \"#utility.yul\":1517:1526   */\n      dup4\n        /* \"#utility.yul\":1513:1530   */\n      add\n        /* \"#utility.yul\":1504:1510   */\n      dup5\n        /* \"#utility.yul\":1462:1531   */\n      tag_57\n      jump\t// in\n    tag_74:\n        /* \"#utility.yul\":1416:1538   */\n      swap3\n      swap2\n      pop\n      pop\n      jump\t// out\n        /* \"#utility.yul\":1544:1762   */\n    tag_16:\n      0x00\n        /* \"#utility.yul\":1673:1675   */\n      0x20\n        /* \"#utility.yul\":1662:1671   */\n      dup3\n        /* \"#utility.yul\":1658:1676   */\n      add\n        /* \"#utility.yul\":1650:1676   */\n      swap1\n      pop\n        /* \"#utility.yul\":1686:1755   */\n      tag_76\n        /* \"#utility.yul\":1752:1753   */\n      0x00\n        /* \"#utility.yul\":1741:1750   */\n      dup4\n        /* \"#utility.yul\":1737:1754   */\n      add\n        /* \"#utility.yul\":1728:1734   */\n      dup5\n        /* \"#utility.yul\":1686:1755   */\n      tag_61\n      jump\t// in\n    tag_76:\n        /* \"#utility.yul\":1640:1762   */\n      swap3\n      swap2\n      pop\n      pop\n      jump\t// out\n        /* \"#utility.yul\":1768:1986   */\n    tag_33:\n      0x00\n        /* \"#utility.yul\":1897:1899   */\n      0x20\n        /* \"#utility.yul\":1886:1895   */\n      dup3\n        /* \"#utility.yul\":1882:1900   */\n      add\n        /* \"#utility.yul\":1874:1900   */\n      swap1\n      pop\n        /* \"#utility.yul\":1910:1979   */\n      tag_78\n        /* \"#utility.yul\":1976:1977   */\n      0x00\n        /* \"#utility.yul\":1965:1974   */\n      dup4\n        /* \"#utility.yul\":1961:1978   */\n      add\n        /* \"#utility.yul\":1952:1958   */\n      dup5\n        /* \"#utility.yul\":1910:1979   */\n      tag_65\n      jump\t// in\n    tag_78:\n        /* \"#utility.yul\":1864:1986   */\n      swap3\n      swap2\n      pop\n      pop\n      jump\t// out\n        /* \"#utility.yul\":1992:2214   */\n    tag_22:\n      0x00\n        /* \"#utility.yul\":2123:2125   */\n      0x20\n        /* \"#utility.yul\":2112:2121   */\n      dup3\n        /* \"#utility.yul\":2108:2126   */\n      add\n        /* \"#utility.yul\":2100:2126   */\n      swap1\n      pop\n        /* \"#utility.yul\":2136:2207   */\n      tag_80\n        /* \"#utility.yul\":2204:2205   */\n      0x00\n        /* \"#utility.yul\":2193:2202   */\n      dup4\n        /* \"#utility.yul\":2189:2206   */\n      add\n        /* \"#utility.yul\":2180:2186   */\n      dup5\n        /* \"#utility.yul\":2136:2207   */\n      tag_69\n      jump\t// in\n    tag_80:\n        /* \"#utility.yul\":2090:2214   */\n      swap3\n      swap2\n      pop\n      pop\n      jump\t// out\n        /* \"#utility.yul\":2220:2369   */\n    tag_60:\n      0x00\n        /* \"#utility.yul\":2296:2362   */\n      0xff00000000000000000000000000000000000000000000000000000000000000\n        /* \"#utility.yul\":2289:2294   */\n      dup3\n        /* \"#utility.yul\":2285:2363   */\n      and\n        /* \"#utility.yul\":2274:2363   */\n      swap1\n      pop\n        /* \"#utility.yul\":2264:2369   */\n      swap2\n      swap1\n      pop\n      jump\t// out\n        /* \"#utility.yul\":2375:2524   */\n    tag_64:\n      0x00\n        /* \"#utility.yul\":2451:2517   */\n      0xffff000000000000000000000000000000000000000000000000000000000000\n        /* \"#utility.yul\":2444:2449   */\n      dup3\n        /* \"#utility.yul\":2440:2518   */\n      and\n        /* \"#utility.yul\":2429:2518   */\n      swap1\n      pop\n        /* \"#utility.yul\":2419:2524   */\n      swap2\n      swap1\n      pop\n      jump\t// out\n        /* \"#utility.yul\":2530:2679   */\n    tag_68:\n      0x00\n        /* \"#utility.yul\":2606:2672   */\n      0xffffff0000000000000000000000000000000000000000000000000000000000\n        /* \"#utility.yul\":2599:2604   */\n      dup3\n        /* \"#utility.yul\":2595:2673   */\n      and\n        /* \"#utility.yul\":2584:2673   */\n      swap1\n      pop\n        /* \"#utility.yul\":2574:2679   */\n      swap2\n      swap1\n      pop\n      jump\t// out\n        /* \"#utility.yul\":2685:2762   */\n    tag_72:\n      0x00\n        /* \"#utility.yul\":2751:2756   */\n      dup2\n        /* \"#utility.yul\":2740:2756   */\n      swap1\n      pop\n        /* \"#utility.yul\":2730:2762   */\n      swap2\n      swap1\n      pop\n      jump\t// out\n        /* \"#utility.yul\":2768:2890   */\n    tag_49:\n        /* \"#utility.yul\":2841:2865   */\n      tag_86\n        /* \"#utility.yul\":2859:2864   */\n      dup2\n        /* \"#utility.yul\":2841:2865   */\n      tag_72\n      jump\t// in\n    tag_86:\n        /* \"#utility.yul\":2834:2839   */\n      dup2\n        /* \"#utility.yul\":2831:2866   */\n      eq\n        /* \"#utility.yul\":2821:2823   */\n      tag_87\n      jumpi\n        /* \"#utility.yul\":2880:2881   */\n      0x00\n        /* \"#utility.yul\":2877:2878   */\n      dup1\n        /* \"#utility.yul\":2870:2882   */\n      revert\n        /* \"#utility.yul\":2821:2823   */\n    tag_87:\n        /* \"#utility.yul\":2811:2890   */\n      pop\n      jump\t// out\n\n    auxdata: 0xa26469706673582212200751054b50b0fe84c828f14451175126fc795fca61079919103931a5d6d74e9564736f6c63430008000033\n}\n",
				"bytecode": {
					"linkReferences": {},
					"object": "60806040526040518060600160405280600260ff168152602001600360ff168152602001600460ff16815250600090600361003b92919061004e565b5034801561004857600080fd5b506100b0565b8260038101928215610082579160200282015b82811115610081578251829060ff16905591602001919060010190610061565b5b50905061008f9190610093565b5090565b5b808211156100ac576000816000905550600101610094565b5090565b6104a1806100bf6000396000f3fe608060405234801561001057600080fd5b506004361061007d5760003560e01c8063a16e72151161005b578063a16e7215146100da578063be1c766b146100f6578063e9b6190914610114578063ee495002146101325761007d565b806309b8e39f146100825780630add6ef21461008c578063431aabc2146100aa575b600080fd5b61008a610150565b005b610094610205565b6040516100a19190610375565b60405180910390f35b6100c460048036038101906100bf91906102b9565b610218565b6040516100d191906103ab565b60405180910390f35b6100f460048036038101906100ef91906102e2565b610233565b005b6100fe610277565b60405161010b91906103ab565b60405180910390f35b61011c610280565b6040516101299190610390565b60405180910390f35b61013a610291565b604051610147919061035a565b60405180910390f35b7f6100000000000000000000000000000000000000000000000000000000000000600360006101000a81548160ff021916908360f81c02179055507f6162000000000000000000000000000000000000000000000000000000000000600360016101000a81548161ffff021916908360f01c02179055507f7a000000000000000000000000000000000000000000000000000000000000006003806101000a81548162ffffff021916908360e81c0217905550565b600360019054906101000a900460f01b81565b6000816003811061022857600080fd5b016000915090505481565b806000836003811061026e577f4e487b7100000000000000000000000000000000000000000000000000000000600052603260045260246000fd5b01819055505050565b60006003905090565b60038054906101000a900460e81b81565b600360009054906101000a900460f81b81565b6000813590506102b381610454565b92915050565b6000602082840312156102cb57600080fd5b60006102d9848285016102a4565b91505092915050565b600080604083850312156102f557600080fd5b6000610303858286016102a4565b9250506020610314858286016102a4565b9150509250929050565b610327816103c6565b82525050565b610336816103f2565b82525050565b6103458161041e565b82525050565b6103548161044a565b82525050565b600060208201905061036f600083018461031e565b92915050565b600060208201905061038a600083018461032d565b92915050565b60006020820190506103a5600083018461033c565b92915050565b60006020820190506103c0600083018461034b565b92915050565b60007fff0000000000000000000000000000000000000000000000000000000000000082169050919050565b60007fffff00000000000000000000000000000000000000000000000000000000000082169050919050565b60007fffffff000000000000000000000000000000000000000000000000000000000082169050919050565b6000819050919050565b61045d8161044a565b811461046857600080fd5b5056fea26469706673582212200751054b50b0fe84c828f14451175126fc795fca61079919103931a5d6d74e9564736f6c63430008000033",
					"opcodes": "PUSH1 0x80 PUSH1 0x40 MSTORE PUSH1 0x40 MLOAD DUP1 PUSH1 0x60 ADD PUSH1 0x40 MSTORE DUP1 PUSH1 0x2 PUSH1 0xFF AND DUP2 MSTORE PUSH1 0x20 ADD PUSH1 0x3 PUSH1 0xFF AND DUP2 MSTORE PUSH1 0x20 ADD PUSH1 0x4 PUSH1 0xFF AND DUP2 MSTORE POP PUSH1 0x0 SWAP1 PUSH1 0x3 PUSH2 0x3B SWAP3 SWAP2 SWAP1 PUSH2 0x4E JUMP JUMPDEST POP CALLVALUE DUP1 ISZERO PUSH2 0x48 JUMPI PUSH1 0x0 DUP1 REVERT JUMPDEST POP PUSH2 0xB0 JUMP JUMPDEST DUP3 PUSH1 0x3 DUP2 ADD SWAP3 DUP3 ISZERO PUSH2 0x82 JUMPI SWAP2 PUSH1 0x20 MUL DUP3 ADD JUMPDEST DUP3 DUP2 GT ISZERO PUSH2 0x81 JUMPI DUP3 MLOAD DUP3 SWAP1 PUSH1 0xFF AND SWAP1 SSTORE SWAP2 PUSH1 0x20 ADD SWAP2 SWAP1 PUSH1 0x1 ADD SWAP1 PUSH2 0x61 JUMP JUMPDEST JUMPDEST POP SWAP1 POP PUSH2 0x8F SWAP2 SWAP1 PUSH2 0x93 JUMP JUMPDEST POP SWAP1 JUMP JUMPDEST JUMPDEST DUP1 DUP3 GT ISZERO PUSH2 0xAC JUMPI PUSH1 0x0 DUP2 PUSH1 0x0 SWAP1 SSTORE POP PUSH1 0x1 ADD PUSH2 0x94 JUMP JUMPDEST POP SWAP1 JUMP JUMPDEST PUSH2 0x4A1 DUP1 PUSH2 0xBF PUSH1 0x0 CODECOPY PUSH1 0x0 RETURN INVALID PUSH1 0x80 PUSH1 0x40 MSTORE CALLVALUE DUP1 ISZERO PUSH2 0x10 JUMPI PUSH1 0x0 DUP1 REVERT JUMPDEST POP PUSH1 0x4 CALLDATASIZE LT PUSH2 0x7D JUMPI PUSH1 0x0 CALLDATALOAD PUSH1 0xE0 SHR DUP1 PUSH4 0xA16E7215 GT PUSH2 0x5B JUMPI DUP1 PUSH4 0xA16E7215 EQ PUSH2 0xDA JUMPI DUP1 PUSH4 0xBE1C766B EQ PUSH2 0xF6 JUMPI DUP1 PUSH4 0xE9B61909 EQ PUSH2 0x114 JUMPI DUP1 PUSH4 0xEE495002 EQ PUSH2 0x132 JUMPI PUSH2 0x7D JUMP JUMPDEST DUP1 PUSH4 0x9B8E39F EQ PUSH2 0x82 JUMPI DUP1 PUSH4 0xADD6EF2 EQ PUSH2 0x8C JUMPI DUP1 PUSH4 0x431AABC2 EQ PUSH2 0xAA JUMPI JUMPDEST PUSH1 0x0 DUP1 REVERT JUMPDEST PUSH2 0x8A PUSH2 0x150 JUMP JUMPDEST STOP JUMPDEST PUSH2 0x94 PUSH2 0x205 JUMP JUMPDEST PUSH1 0x40 MLOAD PUSH2 0xA1 SWAP2 SWAP1 PUSH2 0x375 JUMP JUMPDEST PUSH1 0x40 MLOAD DUP1 SWAP2 SUB SWAP1 RETURN JUMPDEST PUSH2 0xC4 PUSH1 0x4 DUP1 CALLDATASIZE SUB DUP2 ADD SWAP1 PUSH2 0xBF SWAP2 SWAP1 PUSH2 0x2B9 JUMP JUMPDEST PUSH2 0x218 JUMP JUMPDEST PUSH1 0x40 MLOAD PUSH2 0xD1 SWAP2 SWAP1 PUSH2 0x3AB JUMP JUMPDEST PUSH1 0x40 MLOAD DUP1 SWAP2 SUB SWAP1 RETURN JUMPDEST PUSH2 0xF4 PUSH1 0x4 DUP1 CALLDATASIZE SUB DUP2 ADD SWAP1 PUSH2 0xEF SWAP2 SWAP1 PUSH2 0x2E2 JUMP JUMPDEST PUSH2 0x233 JUMP JUMPDEST STOP JUMPDEST PUSH2 0xFE PUSH2 0x277 JUMP JUMPDEST PUSH1 0x40 MLOAD PUSH2 0x10B SWAP2 SWAP1 PUSH2 0x3AB JUMP JUMPDEST PUSH1 0x40 MLOAD DUP1 SWAP2 SUB SWAP1 RETURN JUMPDEST PUSH2 0x11C PUSH2 0x280 JUMP JUMPDEST PUSH1 0x40 MLOAD PUSH2 0x129 SWAP2 SWAP1 PUSH2 0x390 JUMP JUMPDEST PUSH1 0x40 MLOAD DUP1 SWAP2 SUB SWAP1 RETURN JUMPDEST PUSH2 0x13A PUSH2 0x291 JUMP JUMPDEST PUSH1 0x40 MLOAD PUSH2 0x147 SWAP2 SWAP1 PUSH2 0x35A JUMP JUMPDEST PUSH1 0x40 MLOAD DUP1 SWAP2 SUB SWAP1 RETURN JUMPDEST PUSH32 0x6100000000000000000000000000000000000000000000000000000000000000 PUSH1 0x3 PUSH1 0x0 PUSH2 0x100 EXP DUP2 SLOAD DUP2 PUSH1 0xFF MUL NOT AND SWAP1 DUP4 PUSH1 0xF8 SHR MUL OR SWAP1 SSTORE POP PUSH32 0x6162000000000000000000000000000000000000000000000000000000000000 PUSH1 0x3 PUSH1 0x1 PUSH2 0x100 EXP DUP2 SLOAD DUP2 PUSH2 0xFFFF MUL NOT AND SWAP1 DUP4 PUSH1 0xF0 SHR MUL OR SWAP1 SSTORE POP PUSH32 0x7A00000000000000000000000000000000000000000000000000000000000000 PUSH1 0x3 DUP1 PUSH2 0x100 EXP DUP2 SLOAD DUP2 PUSH3 0xFFFFFF MUL NOT AND SWAP1 DUP4 PUSH1 0xE8 SHR MUL OR SWAP1 SSTORE POP JUMP JUMPDEST PUSH1 0x3 PUSH1 0x1 SWAP1 SLOAD SWAP1 PUSH2 0x100 EXP SWAP1 DIV PUSH1 0xF0 SHL DUP2 JUMP JUMPDEST PUSH1 0x0 DUP2 PUSH1 0x3 DUP2 LT PUSH2 0x228 JUMPI PUSH1 0x0 DUP1 REVERT JUMPDEST ADD PUSH1 0x0 SWAP2 POP SWAP1 POP SLOAD DUP2 JUMP JUMPDEST DUP1 PUSH1 0x0 DUP4 PUSH1 0x3 DUP2 LT PUSH2 0x26E JUMPI PUSH32 0x4E487B7100000000000000000000000000000000000000000000000000000000 PUSH1 0x0 MSTORE PUSH1 0x32 PUSH1 0x4 MSTORE PUSH1 0x24 PUSH1 0x0 REVERT JUMPDEST ADD DUP2 SWAP1 SSTORE POP POP POP JUMP JUMPDEST PUSH1 0x0 PUSH1 0x3 SWAP1 POP SWAP1 JUMP JUMPDEST PUSH1 0x3 DUP1 SLOAD SWAP1 PUSH2 0x100 EXP SWAP1 DIV PUSH1 0xE8 SHL DUP2 JUMP JUMPDEST PUSH1 0x3 PUSH1 0x0 SWAP1 SLOAD SWAP1 PUSH2 0x100 EXP SWAP1 DIV PUSH1 0xF8 SHL DUP2 JUMP JUMPDEST PUSH1 0x0 DUP2 CALLDATALOAD SWAP1 POP PUSH2 0x2B3 DUP2 PUSH2 0x454 JUMP JUMPDEST SWAP3 SWAP2 POP POP JUMP JUMPDEST PUSH1 0x0 PUSH1 0x20 DUP3 DUP5 SUB SLT ISZERO PUSH2 0x2CB JUMPI PUSH1 0x0 DUP1 REVERT JUMPDEST PUSH1 0x0 PUSH2 0x2D9 DUP5 DUP3 DUP6 ADD PUSH2 0x2A4 JUMP JUMPDEST SWAP2 POP POP SWAP3 SWAP2 POP POP JUMP JUMPDEST PUSH1 0x0 DUP1 PUSH1 0x40 DUP4 DUP6 SUB SLT ISZERO PUSH2 0x2F5 JUMPI PUSH1 0x0 DUP1 REVERT JUMPDEST PUSH1 0x0 PUSH2 0x303 DUP6 DUP3 DUP7 ADD PUSH2 0x2A4 JUMP JUMPDEST SWAP3 POP POP PUSH1 0x20 PUSH2 0x314 DUP6 DUP3 DUP7 ADD PUSH2 0x2A4 JUMP JUMPDEST SWAP2 POP POP SWAP3 POP SWAP3 SWAP1 POP JUMP JUMPDEST PUSH2 0x327 DUP2 PUSH2 0x3C6 JUMP JUMPDEST DUP3 MSTORE POP POP JUMP JUMPDEST PUSH2 0x336 DUP2 PUSH2 0x3F2 JUMP JUMPDEST DUP3 MSTORE POP POP JUMP JUMPDEST PUSH2 0x345 DUP2 PUSH2 0x41E JUMP JUMPDEST DUP3 MSTORE POP POP JUMP JUMPDEST PUSH2 0x354 DUP2 PUSH2 0x44A JUMP JUMPDEST DUP3 MSTORE POP POP JUMP JUMPDEST PUSH1 0x0 PUSH1 0x20 DUP3 ADD SWAP1 POP PUSH2 0x36F PUSH1 0x0 DUP4 ADD DUP5 PUSH2 0x31E JUMP JUMPDEST SWAP3 SWAP2 POP POP JUMP JUMPDEST PUSH1 0x0 PUSH1 0x20 DUP3 ADD SWAP1 POP PUSH2 0x38A PUSH1 0x0 DUP4 ADD DUP5 PUSH2 0x32D JUMP JUMPDEST SWAP3 SWAP2 POP POP JUMP JUMPDEST PUSH1 0x0 PUSH1 0x20 DUP3 ADD SWAP1 POP PUSH2 0x3A5 PUSH1 0x0 DUP4 ADD DUP5 PUSH2 0x33C JUMP JUMPDEST SWAP3 SWAP2 POP POP JUMP JUMPDEST PUSH1 0x0 PUSH1 0x20 DUP3 ADD SWAP1 POP PUSH2 0x3C0 PUSH1 0x0 DUP4 ADD DUP5 PUSH2 0x34B JUMP JUMPDEST SWAP3 SWAP2 POP POP JUMP JUMPDEST PUSH1 0x0 PUSH32 0xFF00000000000000000000000000000000000000000000000000000000000000 DUP3 AND SWAP1 POP SWAP2 SWAP1 POP JUMP JUMPDEST PUSH1 0x0 PUSH32 0xFFFF000000000000000000000000000000000000000000000000000000000000 DUP3 AND SWAP1 POP SWAP2 SWAP1 POP JUMP JUMPDEST PUSH1 0x0 PUSH32 0xFFFFFF0000000000000000000000000000000000000000000000000000000000 DUP3 AND SWAP1 POP SWAP2 SWAP1 POP JUMP JUMPDEST PUSH1 0x0 DUP2 SWAP1 POP SWAP2 SWAP1 POP JUMP JUMPDEST PUSH2 0x45D DUP2 PUSH2 0x44A JUMP JUMPDEST DUP2 EQ PUSH2 0x468 JUMPI PUSH1 0x0 DUP1 REVERT JUMPDEST POP JUMP INVALID LOG2 PUSH5 0x6970667358 0x22 SLT KECCAK256 SMOD MLOAD SDIV 0x4B POP 0xB0 INVALID DUP5 0xC8 0x28 CALL DIFFICULTY MLOAD OR MLOAD 0x26 0xFC PUSH26 0x5FCA61079919103931A5D6D74E9564736F6C6343000800003300 "
				},
				"gasEstimates": {
					"creation": {
						"codeDepositCost": "237000",
						"executionCost": "infinite",
						"totalCost": "infinite"
					},
					"external": {
						"b1()": "1237",
						"b2()": "1244",
						"b3()": "1262",
						"getLength()": "359",
						"number(uint256)": "infinite",
						"setBytesArray()": "62846",
						"setElement(uint256,uint256)": "infinite"
					}
				},
				"methodIdentifiers": {
					"b1()": "ee495002",
					"b2()": "0add6ef2",
					"b3()": "e9b61909",
					"getLength()": "be1c766b",
					"number(uint256)": "431aabc2",
					"setBytesArray()": "09b8e39f",
					"setElement(uint256,uint256)": "a16e7215"
				}
			},
			"storageLayout": {
				"storage": [
					{
						"astId": 9,
						"contract": "Contract/Fixed_sized_arrary.sol:FixedSizeArray",
						"label": "number",
						"offset": 0,
						"slot": "0",
						"type": "t_array(t_uint256)3_storage"
					},
					{
						"astId": 11,
						"contract": "Contract/Fixed_sized_arrary.sol:FixedSizeArray",
						"label": "b1",
						"offset": 0,
						"slot": "3",
						"type": "t_bytes1"
					},
					{
						"astId": 13,
						"contract": "Contract/Fixed_sized_arrary.sol:FixedSizeArray",
						"label": "b2",
						"offset": 1,
						"slot": "3",
						"type": "t_bytes2"
					},
					{
						"astId": 15,
						"contract": "Contract/Fixed_sized_arrary.sol:FixedSizeArray",
						"label": "b3",
						"offset": 3,
						"slot": "3",
						"type": "t_bytes3"
					}
				],
				"types": {
					"t_array(t_uint256)3_storage": {
						"base": "t_uint256",
						"encoding": "inplace",
						"label": "uint256[3]",
						"numberOfBytes": "96"
					},
					"t_bytes1": {
						"encoding": "inplace",
						"label": "bytes1",
						"numberOfBytes": "1"
					},
					"t_bytes2": {
						"encoding": "inplace",
						"label": "bytes2",
						"numberOfBytes": "2"
					},
					"t_bytes3": {
						"encoding": "inplace",
						"label": "bytes3",
						"numberOfBytes": "3"
					},
					"t_uint256": {
						"encoding": "inplace",
						"label": "uint256",
						"numberOfBytes": "32"
					}
				}
			},
			"userdoc": {
				"kind": "user",
				"methods": {},
				"version": 1
			}
		}
	}
}